{
  "_format": "hh-sol-artifact-1",
  "contractName": "crowdFunding",
  "sourceName": "contracts/CrowdFunding.sol",
  "abi": [
    {
      "inputs": [
        {
          "internalType": "uint256",
          "name": "_fundingGoal",
          "type": "uint256"
        }
      ],
      "stateMutability": "nonpayable",
      "type": "constructor"
    },
    {
      "anonymous": false,
      "inputs": [
        {
          "indexed": false,
          "internalType": "address",
          "name": "contributor",
          "type": "address"
        },
        {
          "indexed": false,
          "internalType": "uint256",
          "name": "amount",
          "type": "uint256"
        }
      ],
      "name": "ContributionReceived",
      "type": "event"
    },
    {
      "anonymous": false,
      "inputs": [
        {
          "indexed": false,
          "internalType": "address",
          "name": "owner",
          "type": "address"
        },
        {
          "indexed": false,
          "internalType": "uint256",
          "name": "amount",
          "type": "uint256"
        }
      ],
      "name": "FundsWithdrawn",
      "type": "event"
    },
    {
      "anonymous": false,
      "inputs": [
        {
          "indexed": false,
          "internalType": "uint256",
          "name": "totalFunds",
          "type": "uint256"
        }
      ],
      "name": "GoalReached",
      "type": "event"
    },
    {
      "inputs": [],
      "name": "contribute",
      "outputs": [],
      "stateMutability": "payable",
      "type": "function"
    },
    {
      "inputs": [
        {
          "internalType": "address",
          "name": "",
          "type": "address"
        }
      ],
      "name": "contributions",
      "outputs": [
        {
          "internalType": "uint256",
          "name": "",
          "type": "uint256"
        }
      ],
      "stateMutability": "view",
      "type": "function"
    },
    {
      "inputs": [],
      "name": "fundingGoal",
      "outputs": [
        {
          "internalType": "uint256",
          "name": "",
          "type": "uint256"
        }
      ],
      "stateMutability": "view",
      "type": "function"
    },
    {
      "inputs": [],
      "name": "goalReached",
      "outputs": [
        {
          "internalType": "bool",
          "name": "",
          "type": "bool"
        }
      ],
      "stateMutability": "view",
      "type": "function"
    },
    {
      "inputs": [],
      "name": "owner",
      "outputs": [
        {
          "internalType": "address",
          "name": "",
          "type": "address"
        }
      ],
      "stateMutability": "view",
      "type": "function"
    },
    {
      "inputs": [],
      "name": "totalFunds",
      "outputs": [
        {
          "internalType": "uint256",
          "name": "",
          "type": "uint256"
        }
      ],
      "stateMutability": "view",
      "type": "function"
    },
    {
      "inputs": [],
      "name": "withdrawFunds",
      "outputs": [],
      "stateMutability": "nonpayable",
      "type": "function"
    }
  ],
  "bytecode": "0x608060405234801561001057600080fd5b50604051610bf4380380610bf4833981810160405281019061003291906100d5565b336000806101000a81548173ffffffffffffffffffffffffffffffffffffffff021916908373ffffffffffffffffffffffffffffffffffffffff160217905550806001819055506000600360006101000a81548160ff02191690831515021790555050610102565b600080fd5b6000819050919050565b6100b28161009f565b81146100bd57600080fd5b50565b6000815190506100cf816100a9565b92915050565b6000602082840312156100eb576100ea61009a565b5b60006100f9848285016100c0565b91505092915050565b610ae3806101116000396000f3fe6080604052600436106100705760003560e01c80637d3d65221161004e5780637d3d6522146100f45780638da5cb5b1461011f578063968ed6001461014a578063d7bb99ba1461017557610070565b806324600fc31461007557806342e94c901461008c5780637a3a0e84146100c9575b600080fd5b34801561008157600080fd5b5061008a61017f565b005b34801561009857600080fd5b506100b360048036038101906100ae9190610635565b6103da565b6040516100c0919061067b565b60405180910390f35b3480156100d557600080fd5b506100de6103f2565b6040516100eb919061067b565b60405180910390f35b34801561010057600080fd5b506101096103f8565b60405161011691906106b1565b60405180910390f35b34801561012b57600080fd5b5061013461040b565b60405161014191906106db565b60405180910390f35b34801561015657600080fd5b5061015f61042f565b60405161016c919061067b565b60405180910390f35b61017d610435565b005b60008054906101000a900473ffffffffffffffffffffffffffffffffffffffff1673ffffffffffffffffffffffffffffffffffffffff163373ffffffffffffffffffffffffffffffffffffffff161461020d576040517f08c379a000000000000000000000000000000000000000000000000000000000815260040161020490610779565b60405180910390fd5b600360009054906101000a900460ff1661025c576040517f08c379a0000000000000000000000000000000000000000000000000000000008152600401610253906107e5565b60405180910390fd5b6000600254116102a1576040517f08c379a000000000000000000000000000000000000000000000000000000000815260040161029890610851565b60405180910390fd5b60006002549050600060028190555060008060009054906101000a900473ffffffffffffffffffffffffffffffffffffffff1673ffffffffffffffffffffffffffffffffffffffff16826040516102f7906108a2565b60006040518083038185875af1925050503d8060008114610334576040519150601f19603f3d011682016040523d82523d6000602084013e610339565b606091505b505090508061037d576040517f08c379a000000000000000000000000000000000000000000000000000000000815260040161037490610903565b60405180910390fd5b7feaff4b37086828766ad3268786972c0cd24259d4c87a80f9d3963a3c3d999b0d60008054906101000a900473ffffffffffffffffffffffffffffffffffffffff16836040516103ce929190610923565b60405180910390a15050565b60046020528060005260406000206000915090505481565b60015481565b600360009054906101000a900460ff1681565b60008054906101000a900473ffffffffffffffffffffffffffffffffffffffff1681565b60025481565b600360009054906101000a900460ff1615610485576040517f08c379a000000000000000000000000000000000000000000000000000000000815260040161047c90610998565b60405180910390fd5b600034116104c8576040517f08c379a00000000000000000000000000000000000000000000000000000000081526004016104bf90610a2a565b60405180910390fd5b34600460003373ffffffffffffffffffffffffffffffffffffffff1673ffffffffffffffffffffffffffffffffffffffff16815260200190815260200160002060008282546105179190610a79565b9250508190555034600260008282546105309190610a79565b925050819055507f1bb460ccaaf70fbacfec17a376f8acbd278c1405590ffcc8ebe4b88daf4f64ad3334604051610568929190610923565b60405180910390a1600154600254106105d0576001600360006101000a81548160ff0219169083151502179055507ffbfd8ab7c24300fa9888cd721c8565a7da56759384781283684dcf7c7c4a846b6002546040516105c7919061067b565b60405180910390a15b565b600080fd5b600073ffffffffffffffffffffffffffffffffffffffff82169050919050565b6000610602826105d7565b9050919050565b610612816105f7565b811461061d57600080fd5b50565b60008135905061062f81610609565b92915050565b60006020828403121561064b5761064a6105d2565b5b600061065984828501610620565b91505092915050565b6000819050919050565b61067581610662565b82525050565b6000602082019050610690600083018461066c565b92915050565b60008115159050919050565b6106ab81610696565b82525050565b60006020820190506106c660008301846106a2565b92915050565b6106d5816105f7565b82525050565b60006020820190506106f060008301846106cc565b92915050565b600082825260208201905092915050565b7f4f6e6c79207468652063616d706169676e206f776e65722063616e2063616c6c60008201527f20746869732066756e6374696f6e2e0000000000000000000000000000000000602082015250565b6000610763602f836106f6565b915061076e82610707565b604082019050919050565b6000602082019050818103600083015261079281610756565b9050919050565b7f46756e64696e6720676f616c206e6f742079657420726561636865642e000000600082015250565b60006107cf601d836106f6565b91506107da82610799565b602082019050919050565b600060208201905081810360008301526107fe816107c2565b9050919050565b7f4e6f2066756e647320746f2077697468647261772e0000000000000000000000600082015250565b600061083b6015836106f6565b915061084682610805565b602082019050919050565b6000602082019050818103600083015261086a8161082e565b9050919050565b600081905092915050565b50565b600061088c600083610871565b91506108978261087c565b600082019050919050565b60006108ad8261087f565b9150819050919050565b7f5472616e73666572206661696c65642e00000000000000000000000000000000600082015250565b60006108ed6010836106f6565b91506108f8826108b7565b602082019050919050565b6000602082019050818103600083015261091c816108e0565b9050919050565b600060408201905061093860008301856106cc565b610945602083018461066c565b9392505050565b7f46756e64696e6720676f616c20616c726561647920726561636865642e000000600082015250565b6000610982601d836106f6565b915061098d8261094c565b602082019050919050565b600060208201905081810360008301526109b181610975565b9050919050565b7f436f6e747269627574696f6e206d75737420626520677265617465722074686160008201527f6e20302e00000000000000000000000000000000000000000000000000000000602082015250565b6000610a146024836106f6565b9150610a1f826109b8565b604082019050919050565b60006020820190508181036000830152610a4381610a07565b9050919050565b7f4e487b7100000000000000000000000000000000000000000000000000000000600052601160045260246000fd5b6000610a8482610662565b9150610a8f83610662565b9250828201905080821115610aa757610aa6610a4a565b5b9291505056fea26469706673582212202e2fd401afd67782ea656f52c501b5430e8c09fa36bc0aa608b6312510e2f06c64736f6c634300081b0033",
  "linkReferences": {},
  "deployedLinkReferences": {}
}